:020000040800F2
:100000000020002009180008190900081B09000831
:1000100000000000000000000000000000000000E0
:100020000000000000000000000000001D090008A2
:1000300000000000000000001F090008210900085E
:1000400059180008591800085918000859180008CC
:1000500059180008591800085918000859180008BC
:1000600059180008591800085918000859180008AC
:10007000591800085918000859180008591800089C
:100080005918000859180008000000005918000805
:10009000591800085918000859180008591800087C
:1000A000591800085918000859180008591800086C
:1000B000591800080000000059180008000000004E
:1000C00003B47146490840004900095E49008E4466
:1000D00003BC7047002243088B4274D303098B4250
:1000E0005FD3030A8B4244D3030B8B4228D3030C08
:1000F0008B420DD3FF22090212BA030C8B4202D3AA
:100100001212090265D0030B8B4219D300E0090AD1
:10011000C30B8B4201D3CB03C01A5241830B8B42DA
:1001200001D38B03C01A5241430B8B4201D34B03C3
:10013000C01A5241030B8B4201D30B03C01A524128
:10014000C30A8B4201D3CB02C01A5241830A8B42AD
:1001500001D38B02C01A5241430A8B4201D34B0296
:10016000C01A5241030A8B4201D30B02C01A5241FA
:10017000CDD2C3098B4201D3CB01C01A52418309AE
:100180008B4201D38B01C01A524143098B4201D3E8
:100190004B01C01A524103098B4201D30B01C01A13
:1001A0005241C3088B4201D3CB00C01A524183088D
:1001B0008B4201D38B00C01A524143088B4201D3BA
:1001C0004B00C01A5241411A00D20146524110461A
:1001D0007047FFE701B5002000F006F802BDC046F9
:1001E0000029F7D076E770477047C04610B5064C37
:1001F0002378002B07D1054B002B02D0044800E0E8
:1002000000BF0123237010BD5C000020000000002F
:10021000A0210008044B10B5002B03D0034904486B
:1002200000E000BF10BDC0460000000060000020DC
:10023000A021000800B585B00C22002101A801F022
:100240002DFB2348234B0360002343608360C3607E
:100250000122026104214161037643768376C376ED
:10026000C221FF31C16103629E39FF39435482626A
:1002700000F082FC00281FD10023019380235B0142
:10028000029380235B050393114801A900F0F0FD60
:10029000002814D1012301930D4801A900F0E8FDC5
:1002A00000280FD102230193094801A900F0E0FDC5
:1002B00000280AD105B000BD00F012FADCE700F01A
:1002C0000FFAE7E700F00CFAECE700F009FAF1E7C3
:1002D000780000200024014010B588B004001422EA
:1002E000002103A801F0DAFA2268114B9A4201D0EA
:1002F00008B010BD0F4B9A69802189000A439A61AA
:100300009A690A400192019A5A69802189020A4336
:100310005A615B690B400293029B07230393043BE2
:100320000493902003A9C00500F092FEE0E7C046C8
:10033000002401400010024010B588B014220021B2
:1003400003A801F0ABFA134B5A69802189020A43D2
:100350005A615A690A400192019A5A698021C90278
:100360000A435A615B690B400293029B0A4C0022CC
:10037000E121200000F030FFE1230393E03B0493F0
:1003800000230593069303A9200000F061FE08B046
:1003900010BDC046001002400004004882B0430077
:1003A00018180023019304E0C046C046019B0133A6
:1003B0000193019B8342F7D302B0704770B51420BC
:1003C000FFF7ECFF0A4CA36980252D022B43A361A4
:1003D0001420FFF7E3FFA26980231B061343A361E8
:1003E0001420FFF7DBFFA3691D43A56170BDC04664
:1003F0000008004810B50400454A91698023DB01DC
:100400000B43936143B2002B46DB9022D2059169E6
:1004100080231B060B439361630645D59022D205CA
:10042000916980235B010B439361A30644D5394A4C
:10043000916980239B000B439361E30643D5354AC2
:10044000916980235B000B439361FFF7B7FF23079C
:1004500040D59022D205916980231B020B43936102
:1004600063073FD59022D205916980235B010B433E
:100470009361A3073ED5274A916980239B000B43D4
:100480009361E4073DD5234A916980235B000B43C8
:100490009361FFF793FF10BD9022D20591698023ED
:1004A0001B020B439361B7E79022D2059169802329
:1004B0005B050B439361B8E7164A916980239B045F
:1004C0000B439361B9E7134A916980235B040B43A3
:1004D0009361BAE79022D205916980231B060B43F2
:1004E0009361BDE79022D205916980235B050B43A0
:1004F0009361BEE7074A916980239B040B43936194
:10050000BFE7044A916980235B040B439361C0E712
:10051000000800480004004870B50500002403E00E
:10052000FFF768FF0134E4B2285D0028F8D170BD00
:1005300010B50400474A91698023DB050B439361A2
:1005400043B2002B49DB9022D205916980231B0620
:100550000B439361630648D59022D20591698023AD
:100560005B010B439361A30647D53B4A9169802306
:100570009B000B439361E30646D5374A916980237C
:100580005B000B439361FFF719FF230743D59022CC
:10059000D205916980231B020B439361630742D507
:1005A0009022D205916980235B010B439361A307DD
:1005B00041D5294A916980239B000B439361E4074D
:1005C00040D5254A916980235B000B439361FFF777
:1005D000F5FE2248FFF7E2FE10BD9022D205916998
:1005E00080231B020B439361B4E79022D2059169EB
:1005F00080235B050B439361B5E7174A916980231C
:100600009B040B439361B6E7134A916980235B0413
:100610000B439361B7E79022D205916980231B06B3
:100620000B439361BAE79022D205916980235B0561
:100630000B439361BBE7084A916980239B040B43FA
:100640009361BCE7044A916980235B040B43936187
:10065000BDE7C0460008004800040048B80B000091
:1006600010B51B4B5969802292020A435A6159699D
:100670008022D2020A435A615969802212030A4336
:100680005A619022D20511688223DB050B43136067
:10069000104A1168A023DB020B4313600E4A116855
:1006A000A023DB050B4313600C48FFF777FE3320D4
:1006B000FFF73EFF3220FFF73BFF0C20FFF738FF2C
:1006C0002820FFF735FF0120FFF732FF10BDC0469D
:1006D0000010024000040048000800483075000087
:1006E00072B6FEE710B590B03022002104A801F0E8
:1006F000D5F8102410220021684601F0CFF812230B
:100700000493113B0793099308940A9404A800F0FA
:1007100069FD00280DD10723009300230193029364
:1007200003930021684600F0D5FF002803D110B0E4
:1007300010BDFFF7D5FFFFF7D3FF000010B58AB05B
:1007400000F01CF9FFF7CEFFFFF7F6FDFFF772FD93
:10075000FFF786FF5FE000228021584800F03CFD53
:100760007CE000224021554800F036FD544C20002A
:1007700000F0F4FA534B04229A620A2000F020F9A8
:10078000200000F0BBFA002220214C4800F024FD9C
:100790004B48052100F004FB0028F9D1484800F03F
:1007A00063FB80B2484B1880484B984200D97EE0EA
:1007B00001222021414800F00FFD414800F0CEFA0F
:1007C0000120FFF7B5FE424B1A88424C210001A8D8
:1007D00001F044F8404B1A88210004A801F03EF8CB
:1007E000394B1A88210007A801F038F83B48FFF779
:1007F00093FE01A8FFF790FE3948FFF78DFE04A88D
:10080000FFF78AFEC020FFF793FE3648FFF784FE0D
:1008100007A8FFF781FE2B4B01229A620A2000F005
:10082000CFF8274800F06AFA00228021234800F020
:10083000D3FC2348052100F0B3FA0028F9D1204861
:1008400000F012FB80B2224B1880204B984200D956
:1008500081E701228021194800F0BEFC184C2000DD
:1008600000F07CFA174B02229A620A2000F0A8F8E6
:10087000200000F043FA00224021104800F0ACFCB8
:100880000F48052100F08CFA0028F9D10C4800F03F
:10089000EBFA80B2104B1880FA23DB00984200D3A9
:1008A0005FE701224021054800F096FC5EE7002248
:1008B0002021024800F090FC7FE7C0460004004879
:1008C0007800002000240140B800002097080000B4
:1008D000BC000020B8210008BA000020C021000898
:1008E000C4210008CC21000882B00A4B996901227A
:1008F0001143996199690A400092009ADA6980214E
:1009000049050A43DA61DB690B400193019B02B0A0
:100910007047C04600100240FEE7FEE77047704790
:1009200010B500F03BF810BD7047000010B5040092
:100930000F4B1978FA208000FFF7CCFB01000D4B1C
:100940001868FFF7C7FB00F07FFB00280DD1032CD0
:1009500001D901200AE0013000222100404200F0CC
:100960006FFB054B1C60002000E0012010BDC0465D
:1009700004000020000000200800002010B5064AF6
:10098000136810210B4313600320FFF7CFFFFFF71D
:10099000ABFF002010BDC04600200240034A116892
:1009A000034B1B785B1813607047C046C0000020E3
:1009B00004000020014B18687047C046C0000020AA
:1009C00070B50400FFF7F6FF0500631C02D0044B6E
:1009D0001B78E418FFF7EEFF401BA042FAD370BD6E
:1009E0000400002070B50400026893685B0725D5F9
:1009F00093685B0706D593689B0703D4936810211F
:100A00000B439360FFF7D6FF050023689B685B07E5
:100A100012D5FFF7CFFF401B0228F6D923689B6849
:100A20005B07F2D5A36B10221343A363E36B0F3A6A
:100A30001343E363012002E0002000E0002070BDCA
:100A400070B504000268916803230B40012B01D0AC
:100A5000002070BD1368DB0702D4D3681B0431D5B6
:100A6000916805230B40012B09D0A36B102213437F
:100A7000A363E36B0F3A1343E3630120E9E7936851
:100A800002210B439360236803221A60FFF792FF51
:100A9000050023689B68DB0712D5FFF78BFF401B1F
:100AA0000228F6D923689B68DB07F2D5A36B1022D6
:100AB0001343A363E36B0F3A1343E3630120C8E7D7
:100AC0000020C6E70020C4E730B583B0040000234F
:100AD00001930368996803220A40012A14D0996897
:100AE000224A114218D19A6801210A439A60204B88
:100AF00018682049FFF7EEFA0190019B002B15D0F2
:100B0000019B013B0193F8E71A68D2072BD4DA68FE
:100B10001204E4D5002024E0A36B10221343A36346
:100B2000E36B0F3A1343E36301201AE0FFF742FF40
:100B3000050023681B68DB0712D4FFF73BFF401B4F
:100B40000228F6D923681B68DB07F2D4A36B1022B6
:100B50001343A363E36B0F3A1343E363012000E005
:100B6000002003B030BD0020FBE7C0461700008026
:100B70000000002040420F0070B5041E00D1B4E018
:100B8000836B002B00D180E0A36BDB0600D5A6E0D1
:100B900023689A68042108001040114200D09EE0AA
:100BA000A26B53490A400631FF310A43A263996898
:100BB00003220A40012A6ED0DA6818218A43A1680C
:100BC0000A43DA60226813699B009B0861680B4343
:100BD00013612268D36847490B40D360237E9B038F
:100BE000627ED2031343A17E4A031343A26A012A01
:100BF00058D0802252011343E26813432269022A2B
:100C000052D003432422A25C52001343E27E012A05
:100C10004CD0E269C221FF318A4202D0216A0A43E4
:100C200013432168CA681A43CA60E26A80214905F1
:100C30008A420DD0012A0BD0022A09D0032A07D0FC
:100C4000042A05D0052A03D0062A01D0072A0AD192
:100C50002068416907229143416120684169E56A42
:100C60002A400A4342612268D26823490A409A42D4
:100C70002BD0A36B12229343023A1343A363E36B7B
:100C80000F3A1343E36301202EE0C36334228354FD
:100C9000FFF722FB78E71A68D2079AD4DA681204C1
:100CA00097D489E70200A6E70420AAE7002903D128
:100CB000802252021343ACE7A26B20210A43A263B5
:100CC000E26B1F390A43E263A3E70023E363A36BEC
:100CD00003229343023A1343A363002004E0A36B6F
:100CE00010221343A363012070BD0120FCE7C0461E
:100CF000FDFEFFFF1902FEFFE7FF3F8310B5040072
:100D000003689B685B0723D43423C35C012B21D089
:100D100034230122C254437E012B14D10020A26B44
:100D20000D4B1A4080235B001343A3630023E3634E
:100D30003422A3542368183A1A6022689368042165
:100D40000B43936010BDFFF7BFFE0028FAD1E6E722
:100D50000220F7E70220F5E7FEF0FFFF10B50400E0
:100D60003423C35C012B17D034230122C254FFF774
:100D700039FE002803D034230022E25410BD2000A5
:100D8000FFF75EFE0028F6D1A36B044A134004323D
:100D9000FF321343A363EEE70220EFE7FEFEFFFFFF
:100DA000F8B504000E004769082F04D00368DB681B
:100DB000DB0718D40C27FFF7FDFD050023681A6830
:100DC00017421FD1731CF9D0002E15D123681B6860
:100DD0001F42F3D1A36B04221343A36334230022E5
:100DE000E254032032E0836B2022134383633423D5
:100DF0000022C254012029E0FFF7DCFD401BB04275
:100E0000DCD9E3E7A16B802292000A43A263D96890
:100E1000C0221201114213D1A27E002A10D11A68F9
:100E200012070DD59A68520711D45A680C218A43CB
:100E30005A60A36B0B4A13400432FF321343A3637F
:100E4000207E00280CD123680C221A60F8BDA36B09
:100E500020221343A363E36B1F3A1343E363EFE7DB
:100E60000020F3E7FEFEFFFF0368186C70470000E8
:100E700030B583B00400002301933433C35C012BED
:100E800000D181E034230122C254026893685B07D9
:100E90006CD448683D4B98424DD0936A0D68012050
:100EA000A84003439362E36A072B27D8002B10D195
:100EB00088682268556907232B40984209D05069F9
:100EC000072398435061206842698D682B40134383
:100ED00043610B681A00103A022A51D82C4A126852
:100EE000102B13D0112B0ED080235B041343284A00
:100EF00013600B68102B0CD000203CE080225205C0
:100F00009342E6D0D4E78023DB03EFE780231B0482
:100F1000ECE7204B18682049FFF7DCF883001B182A
:100F20005B00019302E0019B013B0193019B002BBD
:100F3000F9D100201FE0936A0D680120A840834387
:100F400093620B681A00103A022A1BD8104A1268E2
:100F5000102B09D0112B05D0104B13400C4A1360F5
:100F6000002008E00E4BF8E70E4BF6E7836B2022DB
:100F700013438363012034230022E25403B030BDC5
:100F80000020F8E70020F6E70220F7E70110000054
:100F9000082701400000002040420F00FFFFFFFE35
:100FA000FFFFBFFFFFFF7FFF70B5002811DB830845
:100FB000134DC0339B005C5903221040C000FC322B
:100FC00016008640B44389010A40824022435A51A8
:100FD00070BD0F230340083B9B0806339B00094A62
:100FE000944663445C6803221040C000FC32150044
:100FF0008540AC4389010A40824022435A60E7E7BA
:1010000000E100E000ED00E0013880235B0498423D
:101010000FD2094A50600948036A1B021B0AC0210B
:1010200009060B430362002393600733136000201B
:1010300070470120FCE7C04610E000E000ED00E052
:1010400010B5FFF7B1FF10BD10B5FFF7DDFF10BD04
:10105000F0B583B0002356E086685F000324BC40EF
:10106000A643CC68BC4034438460446894434E68D3
:101070003609012232409A402243426053E0DE08A2
:101080000836B600375805321A4092000F249440B3
:10109000A7430C69944022003A43325056E003269D
:1010A00000E00026A64034003C4302329200444E49
:1010B0009451444A9768EA433E00AE434C68E402C8
:1010C00001D53E002E433F4CA660E7683E00164027
:1010D0004C68A40201D53E002E433A4CE660676896
:1010E0003E0016404C68A40301D53E002E43354C0B
:1010F0006660266832404C68E40301D52A0032431A
:10110000304C226001330C682200DA4056D00122B4
:101110009A40250015401442F4D04E680324344010
:10112000013C012C98D94C6803222240032A08D0A4
:10113000C4685E000322B24094438A68B2402243EE
:10114000C2604C6803222240022A98D004685E00E4
:1011500003221700B740BC434F683A40B2402243D5
:1011600002604C68C02292021442CBD0164CA66991
:1011700001221643A661A46922400192019A9A08AD
:10118000941CA4000E4EA75903241C40A4000F2653
:10119000A640B7439026F605B04282D00B4EB0422F
:1011A00008D00B4EB04207D00A4EB04200D176E7CD
:1011B000052677E7012675E7022673E703B0F0BD41
:1011C00000000140000401400010024000040048FB
:1011D00000080048000C0048002A01D081617047D7
:1011E0008162FCE770B582B0041E00D12EE2036874
:1011F000DB0726D5AE4B5A680C231340042B18D0BE
:10120000AB4B5A680C231340082B0ED06368012B9C
:101210003CD0002B51D1A64B1A68A6490A401A604F
:101220001A68A5490A401A6036E0A14B5B68DB03E7
:10123000ECD59F4B1B689B0303D56368002B00D143
:1012400007E223689B0772D5994B5B680C221A4210
:101250005DD0974B5A680C231340082B53D0E3689A
:10126000002B00D185E0924A136801210B431360E3
:10127000FFF7A0FB05008E4B1B689B0770D4FFF7A0
:1012800099FB401B0228F6D90320E0E1884A116847
:1012900080235B020B4313606368002B25D0FFF7AC
:1012A00089FB0500824B1B689B03CAD4FFF782FBB6
:1012B000401B6428F6D90320C9E1052B09D07C4BDB
:1012C0001A687C490A401A601A687B490A401A6009
:1012D000E2E7774B19688022D2020A431A60196844
:1012E000802252020A431A60D6E7FFF763FB05002B
:1012F0006F4B1B689B03A4D5FFF75CFB401B642866
:10130000F6D90320A3E16A4B5B68DB03A7D4684BE3
:101310001B689B0703D5E368012B00D09BE1644960
:101320000B68F82293432269D20013430B602368B1
:101330001B0744D5E369002B2ED05D4A536A012177
:101340000B435362FFF736FB0500594B5B6A9B0763
:1013500035D4FFF72FFB401B0228F6D9032076E196
:1013600053490B68F82293432269D20013430B6060
:10137000DDE74F4A136801218B431360FFF71AFB27
:1013800005004B4B1B689B07D1D5FFF713FB401B98
:101390000228F6D903205AE1454A536A01218B43BA
:1013A0005362FFF707FB0500414B5B6A9B0706D5BD
:1013B000FFF700FB401B0228F6D9032047E1236812
:1013C0005B0700D480E03A4BDB69DB001DD4384B6F
:1013D000DA69802149050A43DA61DB690B40019330
:1013E000019B0125354B1B68DB0510D5A368012B3C
:1013F00021D0002B36D12E4B1A6A01218A431A6262
:101400001A6A03318A431A621AE00025EAE72B4A76
:10141000116880235B000B431360FFF7CBFA0600D3
:10142000264B1B68DB05E1D4FFF7C4FA801B642858
:10143000F6D903200BE11E4A136A01210B43136204
:10144000A368002B24D0FFF7B5FA0600184B1B6ADF
:101450009B0737D4FFF7AEFA801B194B9842F5D99A
:101460000320F4E0052B09D0114B1A6A01218A43AD
:101470001A621A6A03318A431A62E1E70C4B1A6A4C
:1014800004210A431A621A6A03390A431A62D7E727
:10149000FFF790FA0600064B1B6A9B0712D5FFF771
:1014A00089FA801B064B9842F5D90320CFE0C0464D
:1014B00000100240FFFFFEFFFFFFFBFF0070004037
:1014C00088130000012D33D02368DB0610D5636933
:1014D000012B33D0053351D1654A536B04218B4323
:1014E0005363536BF4318B43A169C9000B435363BE
:1014F000236A002B00D1B0E05D4A51680C220A40FB
:10150000082A00D18AE0022B4FD0594A1368594962
:101510000B401360FFF74EFA0400554B1B689B010C
:101520007AD5FFF747FA001B0228F6D903208EE090
:101530004F4AD36950490B40D361C5E74C4B5A6BB6
:1015400004210A435A635A6B03390A435A63FFF76B
:1015500031FA0500464B5B6B9B0706D4FFF72AFA6E
:10156000401B0228F6D9032071E041494B6BF82259
:101570009343A269D20013434B63B9E73C4B5A6BC8
:1015800004210A435A635A6B03398A435A63FFF7AB
:1015900011FA0500364B5B6B9B07A9D5FFF70AFADA
:1015A000401B0228F6D9032051E0314A1368314923
:1015B0000B401360FFF7FEF905002D4B1B689B01E4
:1015C00006D5FFF7F7F9401B0228F6D903203EE0C5
:1015D000274BDA6A0F218A43E16A0A43DA625A68C2
:1015E00026490A40A16A606A01430A435A601968A1
:1015F000802252040A431A60FFF7DCF904001C4BF6
:101600001B689B0106D4FFF7D5F9001B0228F6D909
:1016100003201CE000201AE0002018E0012B1ED05F
:10162000134B5A68D86A80235B021340616A8B426D
:1016300017D10F230340E16A8B4214D1F0239B039F
:101640001A40A36A9A4210D1002000E0012002B0A3
:1016500070BD0120FBE70120F9E70020F7E701203A
:10166000F5E70120F3E70120F1E70120EFE7C046AD
:1016700000100240FFFFFFFEFFFFFFEFFFFFC2FF72
:1016800010B5104B5A680C231340082B01D00E489C
:1016900010BD910C073319400C48445C0949C96AD4
:1016A0000B400B49C95CD20304D50748FEF712FD75
:1016B0006043EDE76201121B93019B1ADB001B19CB
:1016C0001802E5E70010024000127A00F02100083D
:1016D000E021000870B504000D00002800D17EE074
:1016E000434B1A68012313408B420AD240490B68CE
:1016F000012293432B430B600B681A40AA4200D08F
:101700006FE023689A070ED55B0705D5394A516803
:10171000E023DB000B435360364A5368F0218B43D0
:10172000A1680B4353602368DB072DD56368012B49
:101730001ED0022B22D02F4A1268920753D52D4972
:101740004A680320824313434B60FFF733F90600D6
:10175000284B5B680C221A4063689B009A4213D0A6
:10176000FFF728F9801B244B9842F1D9032035E07C
:10177000204A12689203E2D401202FE01D4A126829
:101780009201DCD4012029E0194B1A68012313408F
:10179000AB4209D916490B68012293432B430B60D6
:1017A0000B681A40AA4220D123685B0706D5114A6C
:1017B000536812490B40E1680B435360FFF760FF29
:1017C0000C4B5A6812090F2313400D4AD35CD840C2
:1017D0000C4B18600320FFF7A9F8002070BD012012
:1017E000FCE70120FAE70120F8E70120F6E7C04610
:1017F000002002400010024088130000FFF8FFFFA5
:10180000D0210008000000200D488546FFF78CF825
:101810000C480D490D4A002302E0D458C45004334B
:10182000C4188C42F9D30A4A0A4C002301E0136021
:101830000432A242FBD300F039F8FEF77FFFFEE747
:1018400000200020000000205C0000203C22000856
:101850005C00002010020020FEE700000EB400B57E
:101860000B499CB01DAB029006900791049109486A
:10187000094904CB0591006802A9019300F09CF886
:101880000022029B1A701CB008BC03B01847C04667
:10189000FFFFFF7F0C0000200802FFFF03008218FB
:1018A000934200D1704719700133F9E770B50026F3
:1018B0000C4C0D4D641BA410A64209D1002600F06B
:1018C0006FFC0A4C0A4D641BA410A64205D170BDE2
:1018D000B300EB5898470136EEE7B300EB58984752
:1018E0000136F2E7342200083422000838220008CA
:1018F0003422000870477047F0B58E6885B01F002D
:101900000C000B6802900392BE4230D80C21625E3C
:101910009021C9000A4228D0032021695B1A019353
:10192000636943430198DD0FED187B1C1B186D1094
:10193000AB4200D91D00520528D52900029800F0BD
:101940005BF9061E2CD0019A216900F0C0FBA28928
:10195000184B1A4080231343A381019B2661F6187C
:1019600026603E006561ED1AA560BE4200D93E00CA
:1019700032000399206800F07BFB0020A3689B1BCA
:10198000A36023689B19236005B0F0BD2A0002986C
:1019900000F03EFB061EE0D12169029800F0A0FB9A
:1019A0000C230120029A40421360A289343313436E
:1019B000A381E9E77FFBFFFFF0B5A1B003901D0015
:1019C0008B890F0016001B0611D50B69002B0ED159
:1019D000402100F011F938603861002805D10C234E
:1019E000039A136001204042CFE040237B61002333
:1019F00008AC6361203363761033A3760795350016
:101A00002B78002B01D0252B48D1AB1B0593B54279
:101A10000BD0320039000398FFF76EFF013000D180
:101A2000AEE06369059A9B1863612B78002B00D1A7
:101A3000A6E0012200235242626004A954325218E7
:101A40006E1C2360E360A3601370A365544B0522F2
:101A500018003178059300F02FFB751C00281FD16A
:101A60002268D30604D5532304A95B1820211970DA
:101A7000130704D5532304A95B182B21197033785D
:101A80002A2B16D0350000210A20E3682A786E1C24
:101A9000303A092A50D9002911D117E00135AFE7B2
:101AA000059B2268C01A0123834013432E00236044
:101AB000CCE7079B191D1B680791002B01DB0B93DB
:101AC00004E05B42E3600223134323602B782E2B58
:101AD0000CD16B782A2B34D1079B02351A1D1B6859
:101AE0000792002B01DA01235B4209932D4E03225A
:101AF0003000297800F0E0FA002806D04023801B4F
:101B00008340226801351343236029780622264842
:101B10006E1C217600F0D0FA002838D0234B002B21
:101B200022D10722079B0733934308330793636946
:101B3000049A9B18636162E74343350001219B18B7
:101B4000A4E700230A201900013563602A786E1C7F
:101B5000303A092A03D9002BC8D00991C6E741437E
:101B6000350001238918F1E707AA009221003A0005
:101B70000F4B039800E000BF0490049B0133D6D1C3
:101B8000BB890D985B0600D52CE721B0F0BD07AAF4
:101B9000009221003A00064B039800F01DF9EBE794
:101BA00000220008062200080A22000800000000A7
:101BB000F918000870B50F4E0D00316804000029B7
:101BC00002D100F067FA30602900200000F062FACC
:101BD000431C03D101256D42280070BD0323C51CA1
:101BE0009D43A842F8D0291A200000F053FA013092
:101BF000F2D1EFE700020020F7B50322CB1C93439C
:101C0000083305001F000C2B34D20C27B94233D8FF
:101C1000280000F0EDF9374E33681C00002C2FD15E
:101C200039002800FFF7C6FF0400431C5FD1346869
:101C30000094009B002B4AD1002C52D0236828002E
:101C4000E3180099019300F025FA019B834248D1E3
:101C500023682800FF1A3900FFF7ACFF013040D09D
:101C60002368DB19236033685A68002A33D1009B4C
:101C7000336019E0002BC9DA0C232B600020FEBD75
:101C80002168C91B20D40B290AD9E2192760A34275
:101C900004D1326063681160536005E05A60F9E76F
:101CA0006268A3420ED13260280000F0A9F920003A
:101CB00007220B30231D9043C21A9842DFD01B1A13
:101CC000A350DCE75A60EFE723006468A6E7009CB6
:101CD00063680093ADE71A005B68A342FBD1002361
:101CE000DAE70C2328002B6000F08AF9C6E70760CA
:101CF000DAE7C04604020020F7B5160001938A68AF
:101D00000B690C000090934200DA1300220033604C
:101D100043321278002A01D00133336023689B06D6
:101D200002D53368023333602268062315001D4054
:101D30001A4227D0230043331B785A1E934122684E
:101D4000920630D4220001990098089D4332A8479A
:101D5000013025D00622236800251340042B05D12D
:101D60003368E568ED1AEB43DB171D40A368226971
:101D7000934201DD9B1AED180026B54220D10020C8
:101D800010E00135E36832689B1AAB42D2DD2200D5
:101D9000012301990098089F1932B8470130F0D10A
:101DA00001204042FEBD3020E1184331087021007F
:101DB0005A1C45310978A218433202331170C1E729
:101DC0002200012301990098089F1A32B847013078
:101DD000E6D00136D1E70000F0B58BB006920A00DC
:101DE00043320793059003920A7E0C00109B782AD9
:101DF00009D8622A0BD8002A00D1BAE07A490491A6
:101E0000582A00D18EE0250042352A7022E01000C9
:101E100063381528F7D8FEF753F916001F00F6FFB0
:101E2000F6FFF6FFF6FF1F00F6FFF6FFF6FFF6FFE0
:101E30009F0036007E00F6FFF6FFB000F6FF36008A
:101E4000F6FFF6FF820025001A684235111D196061
:101E500013682B7001239EE018680968021D0D06A7
:101E60000BD506681A60002E03DA2D23039A7642FA
:101E700013705D4B0A27049318E006681A60490640
:101E8000F1D536B2EFE70868196840C9050602D4F3
:101E9000400600D5B6B21960534B0A2704936F2A47
:101EA00000D1023F2300002243331A706368A3600D
:101EB000002B06DB04212268039D8A432260334302
:101EC0000CD0039D30003900FEF78AF9049B013DD8
:101ED0005B5C2B70330006009F42F3D9082F09D1B9
:101EE0002368DB0706D5626823699A4202DC302347
:101EF000013D2B70039B5B1B2361079B210000931B
:101F00000598069B09AAFFF7F7FE013048D101208A
:101F100040420BB0F0BD202209680A4322607822BB
:101F200032490491210045310A701968226840C97C
:101F3000100602D4500600D5B6B21960D30702D5F8
:101F4000202313432360002E01D01027AAE720226C
:101F5000236893432360F8E71A680D68101D4969E8
:101F6000186013682E0601D5196002E06D06FBD5D6
:101F700019800023039D2361BFE71A68111D1960B2
:101F8000156800212800626800F096F8002801D04A
:101F9000401B6060636823610023039A1370ACE701
:101FA0002A00236906990598079DA8470130AED0FD
:101FB00023689B0715D4099BE0689842A9DA1800AA
:101FC000A7E72200012306990598079E1932B0471A
:101FD00001309CD00135E368099A9B1AAB42F0DCD2
:101FE000E9E70025F7E7C046112200082222000891
:101FF00010B50248FFF77EFC10BDC046FC01002072
:1020000010B50248FFF777FC10BDC046FC01002068
:10201000F7B506000C001500002905D11100FFF7E7
:10202000EBFD04002000FEBD002A03D100F058F8AB
:102030002C00F7E700F09EF80700854202D843081D
:10204000AB42EFD329003000FFF7D6FD0190002806
:1020500001D1019CE6E72A00BD4200D93A002100E7
:10206000019800F034F82100300000F039F8F0E772
:1020700010B5884202D98B18984208D300239A429F
:1020800007D0CC5CC4540133F9E78B5C8354013A2C
:10209000FBD210BD002370B5064D040008002B6074
:1020A00000F070F8431C03D12B68002B00D0236094
:1020B00070BDC04608020020C9B28218904201D10A
:1020C0000020704703788B42FBD00130F6E70023F5
:1020D00010B59A4200D110BDCC5CC4540133F8E76E
:1020E00070B505000C1E10D0043C2368002B00DAEC
:1020F000E4182800FFF77CFF1D4A1368002B05D168
:10210000636014602800FFF77BFF70BDA34208D90D
:10211000206821188B42F3D119685B680918216087
:10212000EEE71A005B68002B01D0A342F9D91168D1
:102130005018A0420BD12068091850181160834232
:10214000E0D118685B68411811605360DAE7A0427B
:1021500002D90C232B60D5E7206821188B4203D1CC
:1021600019685B680918216063605460CAE7C0465B
:10217000040200200B1F1B68181F002B01DA0B58EC
:10218000C0187047044A03001068002802D0C31822
:10219000136070470148FAE70C020020100200208B
:1021A000F8B5C046F8BC08BC9E467047F8B5C046B6
:0821B000F8BC08BC9E46704714
:1021B80025640000000000004C4F3A00204D4F3AC3
:1021C80000000000524F3A0000000000000000002C
:1021D80001020304060708090102030405060708AB
:1021E800090A0B0C0D0E0F10020304050607080957
:1021F8000A0B0C0D0E0F1010232D302B2000686CCD
:102208004C00656667454647003031323334353611
:10221800373839414243444546003031323334354A
:0C22280036373839616263646566000077
:042234001502000887
:04223800ED010008AC
:10223C0000127A00010000000400000010000020D1
:10224C0000000000C40000202C010020940100209C
:10225C000000000000000000000000000000000072
:10226C000000000000000000000000000000000062
:10227C000000000000000000000000000000000052
:0C228C0000000000000000000000000046
:0400000508001809CE
:00000001FF
